{
  "_format": "hh-sol-artifact-1",
  "contractName": "ChainQuest",
  "sourceName": "contracts/ChainQuest.sol",
  "abi": [
    {
      "inputs": [],
      "stateMutability": "nonpayable",
      "type": "constructor"
    },
    {
      "inputs": [
        {
          "internalType": "address",
          "name": "sender",
          "type": "address"
        },
        {
          "internalType": "uint256",
          "name": "tokenId",
          "type": "uint256"
        },
        {
          "internalType": "address",
          "name": "owner",
          "type": "address"
        }
      ],
      "name": "ERC721IncorrectOwner",
      "type": "error"
    },
    {
      "inputs": [
        {
          "internalType": "address",
          "name": "operator",
          "type": "address"
        },
        {
          "internalType": "uint256",
          "name": "tokenId",
          "type": "uint256"
        }
      ],
      "name": "ERC721InsufficientApproval",
      "type": "error"
    },
    {
      "inputs": [
        {
          "internalType": "address",
          "name": "approver",
          "type": "address"
        }
      ],
      "name": "ERC721InvalidApprover",
      "type": "error"
    },
    {
      "inputs": [
        {
          "internalType": "address",
          "name": "operator",
          "type": "address"
        }
      ],
      "name": "ERC721InvalidOperator",
      "type": "error"
    },
    {
      "inputs": [
        {
          "internalType": "address",
          "name": "owner",
          "type": "address"
        }
      ],
      "name": "ERC721InvalidOwner",
      "type": "error"
    },
    {
      "inputs": [
        {
          "internalType": "address",
          "name": "receiver",
          "type": "address"
        }
      ],
      "name": "ERC721InvalidReceiver",
      "type": "error"
    },
    {
      "inputs": [
        {
          "internalType": "address",
          "name": "sender",
          "type": "address"
        }
      ],
      "name": "ERC721InvalidSender",
      "type": "error"
    },
    {
      "inputs": [
        {
          "internalType": "uint256",
          "name": "tokenId",
          "type": "uint256"
        }
      ],
      "name": "ERC721NonexistentToken",
      "type": "error"
    },
    {
      "inputs": [
        {
          "internalType": "address",
          "name": "owner",
          "type": "address"
        }
      ],
      "name": "OwnableInvalidOwner",
      "type": "error"
    },
    {
      "inputs": [
        {
          "internalType": "address",
          "name": "account",
          "type": "address"
        }
      ],
      "name": "OwnableUnauthorizedAccount",
      "type": "error"
    },
    {
      "anonymous": false,
      "inputs": [
        {
          "indexed": true,
          "internalType": "address",
          "name": "owner",
          "type": "address"
        },
        {
          "indexed": true,
          "internalType": "address",
          "name": "approved",
          "type": "address"
        },
        {
          "indexed": true,
          "internalType": "uint256",
          "name": "tokenId",
          "type": "uint256"
        }
      ],
      "name": "Approval",
      "type": "event"
    },
    {
      "anonymous": false,
      "inputs": [
        {
          "indexed": true,
          "internalType": "address",
          "name": "owner",
          "type": "address"
        },
        {
          "indexed": true,
          "internalType": "address",
          "name": "operator",
          "type": "address"
        },
        {
          "indexed": false,
          "internalType": "bool",
          "name": "approved",
          "type": "bool"
        }
      ],
      "name": "ApprovalForAll",
      "type": "event"
    },
    {
      "anonymous": false,
      "inputs": [
        {
          "indexed": false,
          "internalType": "uint256",
          "name": "_fromTokenId",
          "type": "uint256"
        },
        {
          "indexed": false,
          "internalType": "uint256",
          "name": "_toTokenId",
          "type": "uint256"
        }
      ],
      "name": "BatchMetadataUpdate",
      "type": "event"
    },
    {
      "anonymous": false,
      "inputs": [
        {
          "indexed": false,
          "internalType": "uint256",
          "name": "_tokenId",
          "type": "uint256"
        }
      ],
      "name": "MetadataUpdate",
      "type": "event"
    },
    {
      "anonymous": false,
      "inputs": [
        {
          "indexed": true,
          "internalType": "address",
          "name": "solver",
          "type": "address"
        },
        {
          "indexed": false,
          "internalType": "uint256",
          "name": "tokenId",
          "type": "uint256"
        },
        {
          "indexed": false,
          "internalType": "uint256",
          "name": "puzzleId",
          "type": "uint256"
        },
        {
          "indexed": false,
          "internalType": "string",
          "name": "tokenURI",
          "type": "string"
        }
      ],
      "name": "NFTMinted",
      "type": "event"
    },
    {
      "anonymous": false,
      "inputs": [
        {
          "indexed": true,
          "internalType": "address",
          "name": "previousOwner",
          "type": "address"
        },
        {
          "indexed": true,
          "internalType": "address",
          "name": "newOwner",
          "type": "address"
        }
      ],
      "name": "OwnershipTransferred",
      "type": "event"
    },
    {
      "anonymous": false,
      "inputs": [
        {
          "indexed": true,
          "internalType": "address",
          "name": "solver",
          "type": "address"
        },
        {
          "indexed": false,
          "internalType": "uint256",
          "name": "puzzleId",
          "type": "uint256"
        }
      ],
      "name": "PuzzleSolved",
      "type": "event"
    },
    {
      "anonymous": false,
      "inputs": [
        {
          "indexed": true,
          "internalType": "address",
          "name": "from",
          "type": "address"
        },
        {
          "indexed": true,
          "internalType": "address",
          "name": "to",
          "type": "address"
        },
        {
          "indexed": true,
          "internalType": "uint256",
          "name": "tokenId",
          "type": "uint256"
        }
      ],
      "name": "Transfer",
      "type": "event"
    },
    {
      "inputs": [
        {
          "internalType": "uint256",
          "name": "_puzzleId",
          "type": "uint256"
        },
        {
          "internalType": "string",
          "name": "_puzzle",
          "type": "string"
        },
        {
          "internalType": "string",
          "name": "_solution",
          "type": "string"
        }
      ],
      "name": "addPuzzle",
      "outputs": [],
      "stateMutability": "nonpayable",
      "type": "function"
    },
    {
      "inputs": [
        {
          "internalType": "address",
          "name": "to",
          "type": "address"
        },
        {
          "internalType": "uint256",
          "name": "tokenId",
          "type": "uint256"
        }
      ],
      "name": "approve",
      "outputs": [],
      "stateMutability": "nonpayable",
      "type": "function"
    },
    {
      "inputs": [
        {
          "internalType": "address",
          "name": "owner",
          "type": "address"
        }
      ],
      "name": "balanceOf",
      "outputs": [
        {
          "internalType": "uint256",
          "name": "",
          "type": "uint256"
        }
      ],
      "stateMutability": "view",
      "type": "function"
    },
    {
      "inputs": [
        {
          "internalType": "address",
          "name": "",
          "type": "address"
        }
      ],
      "name": "completed",
      "outputs": [
        {
          "internalType": "bool",
          "name": "",
          "type": "bool"
        }
      ],
      "stateMutability": "view",
      "type": "function"
    },
    {
      "inputs": [
        {
          "internalType": "uint256",
          "name": "tokenId",
          "type": "uint256"
        }
      ],
      "name": "getApproved",
      "outputs": [
        {
          "internalType": "address",
          "name": "",
          "type": "address"
        }
      ],
      "stateMutability": "view",
      "type": "function"
    },
    {
      "inputs": [
        {
          "internalType": "uint256",
          "name": "_puzzleId",
          "type": "uint256"
        }
      ],
      "name": "getPuzzle",
      "outputs": [
        {
          "internalType": "string",
          "name": "",
          "type": "string"
        }
      ],
      "stateMutability": "view",
      "type": "function"
    },
    {
      "inputs": [
        {
          "internalType": "address",
          "name": "owner",
          "type": "address"
        },
        {
          "internalType": "address",
          "name": "operator",
          "type": "address"
        }
      ],
      "name": "isApprovedForAll",
      "outputs": [
        {
          "internalType": "bool",
          "name": "",
          "type": "bool"
        }
      ],
      "stateMutability": "view",
      "type": "function"
    },
    {
      "inputs": [],
      "name": "name",
      "outputs": [
        {
          "internalType": "string",
          "name": "",
          "type": "string"
        }
      ],
      "stateMutability": "view",
      "type": "function"
    },
    {
      "inputs": [],
      "name": "owner",
      "outputs": [
        {
          "internalType": "address",
          "name": "",
          "type": "address"
        }
      ],
      "stateMutability": "view",
      "type": "function"
    },
    {
      "inputs": [
        {
          "internalType": "uint256",
          "name": "tokenId",
          "type": "uint256"
        }
      ],
      "name": "ownerOf",
      "outputs": [
        {
          "internalType": "address",
          "name": "",
          "type": "address"
        }
      ],
      "stateMutability": "view",
      "type": "function"
    },
    {
      "inputs": [],
      "name": "puzzleCount",
      "outputs": [
        {
          "internalType": "uint256",
          "name": "",
          "type": "uint256"
        }
      ],
      "stateMutability": "view",
      "type": "function"
    },
    {
      "inputs": [],
      "name": "renounceOwnership",
      "outputs": [],
      "stateMutability": "nonpayable",
      "type": "function"
    },
    {
      "inputs": [
        {
          "internalType": "address",
          "name": "from",
          "type": "address"
        },
        {
          "internalType": "address",
          "name": "to",
          "type": "address"
        },
        {
          "internalType": "uint256",
          "name": "tokenId",
          "type": "uint256"
        }
      ],
      "name": "safeTransferFrom",
      "outputs": [],
      "stateMutability": "nonpayable",
      "type": "function"
    },
    {
      "inputs": [
        {
          "internalType": "address",
          "name": "from",
          "type": "address"
        },
        {
          "internalType": "address",
          "name": "to",
          "type": "address"
        },
        {
          "internalType": "uint256",
          "name": "tokenId",
          "type": "uint256"
        },
        {
          "internalType": "bytes",
          "name": "data",
          "type": "bytes"
        }
      ],
      "name": "safeTransferFrom",
      "outputs": [],
      "stateMutability": "nonpayable",
      "type": "function"
    },
    {
      "inputs": [
        {
          "internalType": "address",
          "name": "operator",
          "type": "address"
        },
        {
          "internalType": "bool",
          "name": "approved",
          "type": "bool"
        }
      ],
      "name": "setApprovalForAll",
      "outputs": [],
      "stateMutability": "nonpayable",
      "type": "function"
    },
    {
      "inputs": [
        {
          "internalType": "uint256",
          "name": "_puzzleId",
          "type": "uint256"
        },
        {
          "internalType": "string",
          "name": "_solution",
          "type": "string"
        }
      ],
      "name": "solvePuzzle",
      "outputs": [],
      "stateMutability": "nonpayable",
      "type": "function"
    },
    {
      "inputs": [
        {
          "internalType": "bytes4",
          "name": "interfaceId",
          "type": "bytes4"
        }
      ],
      "name": "supportsInterface",
      "outputs": [
        {
          "internalType": "bool",
          "name": "",
          "type": "bool"
        }
      ],
      "stateMutability": "view",
      "type": "function"
    },
    {
      "inputs": [],
      "name": "symbol",
      "outputs": [
        {
          "internalType": "string",
          "name": "",
          "type": "string"
        }
      ],
      "stateMutability": "view",
      "type": "function"
    },
    {
      "inputs": [],
      "name": "tokenCounter",
      "outputs": [
        {
          "internalType": "uint256",
          "name": "",
          "type": "uint256"
        }
      ],
      "stateMutability": "view",
      "type": "function"
    },
    {
      "inputs": [
        {
          "internalType": "uint256",
          "name": "tokenId",
          "type": "uint256"
        }
      ],
      "name": "tokenURI",
      "outputs": [
        {
          "internalType": "string",
          "name": "",
          "type": "string"
        }
      ],
      "stateMutability": "view",
      "type": "function"
    },
    {
      "inputs": [
        {
          "internalType": "address",
          "name": "from",
          "type": "address"
        },
        {
          "internalType": "address",
          "name": "to",
          "type": "address"
        },
        {
          "internalType": "uint256",
          "name": "tokenId",
          "type": "uint256"
        }
      ],
      "name": "transferFrom",
      "outputs": [],
      "stateMutability": "nonpayable",
      "type": "function"
    },
    {
      "inputs": [
        {
          "internalType": "address",
          "name": "newOwner",
          "type": "address"
        }
      ],
      "name": "transferOwnership",
      "outputs": [],
      "stateMutability": "nonpayable",
      "type": "function"
    }
  ],
  "bytecode": "0x60806040523480156200001157600080fd5b50336040518060400160405280600d81526020017f436861696e51756573744e4654000000000000000000000000000000000000008152506040518060400160405280600381526020017f43514e0000000000000000000000000000000000000000000000000000000000815250816000908162000090919062000472565b508060019081620000a2919062000472565b505050600073ffffffffffffffffffffffffffffffffffffffff168173ffffffffffffffffffffffffffffffffffffffff16036200011a5760006040517f1e4fbdf70000000000000000000000000000000000000000000000000000000081526004016200011191906200059e565b60405180910390fd5b6200012b816200013260201b60201c565b50620005bb565b6000600760009054906101000a900473ffffffffffffffffffffffffffffffffffffffff16905081600760006101000a81548173ffffffffffffffffffffffffffffffffffffffff021916908373ffffffffffffffffffffffffffffffffffffffff1602179055508173ffffffffffffffffffffffffffffffffffffffff168173ffffffffffffffffffffffffffffffffffffffff167f8be0079c531659141344cd1fd0a4f28419497f9722a3daafe3b4186f6b6457e060405160405180910390a35050565b600081519050919050565b7f4e487b7100000000000000000000000000000000000000000000000000000000600052604160045260246000fd5b7f4e487b7100000000000000000000000000000000000000000000000000000000600052602260045260246000fd5b600060028204905060018216806200027a57607f821691505b60208210810362000290576200028f62000232565b5b50919050565b60008190508160005260206000209050919050565b60006020601f8301049050919050565b600082821b905092915050565b600060088302620002fa7fffffffffffffffffffffffffffffffffffffffffffffffffffffffffffffffff82620002bb565b620003068683620002bb565b95508019841693508086168417925050509392505050565b6000819050919050565b6000819050919050565b6000620003536200034d62000347846200031e565b62000328565b6200031e565b9050919050565b6000819050919050565b6200036f8362000332565b620003876200037e826200035a565b848454620002c8565b825550505050565b600090565b6200039e6200038f565b620003ab81848462000364565b505050565b5b81811015620003d357620003c760008262000394565b600181019050620003b1565b5050565b601f8211156200042257620003ec8162000296565b620003f784620002ab565b8101602085101562000407578190505b6200041f6200041685620002ab565b830182620003b0565b50505b505050565b600082821c905092915050565b6000620004476000198460080262000427565b1980831691505092915050565b600062000462838362000434565b9150826002028217905092915050565b6200047d82620001f8565b67ffffffffffffffff81111562000499576200049862000203565b5b620004a5825462000261565b620004b2828285620003d7565b600060209050601f831160018114620004ea5760008415620004d5578287015190505b620004e1858262000454565b86555062000551565b601f198416620004fa8662000296565b60005b828110156200052457848901518255600182019150602085019450602081019050620004fd565b8683101562000544578489015162000540601f89168262000434565b8355505b6001600288020188555050505b505050505050565b600073ffffffffffffffffffffffffffffffffffffffff82169050919050565b6000620005868262000559565b9050919050565b620005988162000579565b82525050565b6000602082019050620005b560008301846200058d565b92915050565b6130f280620005cb6000396000f3fe608060405234801561001057600080fd5b50600436106101425760003560e01c80637194bb90116100b8578063b88d4fde1161007c578063b88d4fde14610361578063c87b56dd1461037d578063d082e381146103ad578063e420bdf4146103cb578063e985e9c5146103fb578063f2fde38b1461042b57610142565b80637194bb90146102cf5780638da5cb5b146102ed57806395d89b411461030b578063a22cb46514610329578063b55b16051461034557610142565b806323b872dd1161010a57806323b872dd1461021157806336289f7b1461022d57806342842e0e146102495780636352211e1461026557806370a0823114610295578063715018a6146102c557610142565b806301ffc9a71461014757806306fdde0314610177578063081812fc14610195578063095ea7b3146101c55780631f2d8b46146101e1575b600080fd5b610161600480360381019061015c9190612149565b610447565b60405161016e9190612191565b60405180910390f35b61017f6104a8565b60405161018c919061223c565b60405180910390f35b6101af60048036038101906101aa9190612294565b61053a565b6040516101bc9190612302565b60405180910390f35b6101df60048036038101906101da9190612349565b610556565b005b6101fb60048036038101906101f69190612294565b61056c565b604051610208919061223c565b60405180910390f35b61022b60048036038101906102269190612389565b610655565b005b61024760048036038101906102429190612511565b610757565b005b610263600480360381019061025e9190612389565b6107db565b005b61027f600480360381019061027a9190612294565b6107fb565b60405161028c9190612302565b60405180910390f35b6102af60048036038101906102aa919061259c565b61080d565b6040516102bc91906125d8565b60405180910390f35b6102cd6108c7565b005b6102d76108db565b6040516102e491906125d8565b60405180910390f35b6102f56108e1565b6040516103029190612302565b60405180910390f35b61031361090b565b604051610320919061223c565b60405180910390f35b610343600480360381019061033e919061261f565b61099d565b005b61035f600480360381019061035a919061265f565b6109b3565b005b61037b6004803603810190610376919061275c565b610bbf565b005b61039760048036038101906103929190612294565b610bdc565b6040516103a4919061223c565b60405180910390f35b6103b5610cef565b6040516103c291906125d8565b60405180910390f35b6103e560048036038101906103e0919061259c565b610cf5565b6040516103f29190612191565b60405180910390f35b610415600480360381019061041091906127df565b610d15565b6040516104229190612191565b60405180910390f35b6104456004803603810190610440919061259c565b610da9565b005b6000634906490660e01b7bffffffffffffffffffffffffffffffffffffffffffffffffffffffff1916827bffffffffffffffffffffffffffffffffffffffffffffffffffffffff191614806104a157506104a082610e2f565b5b9050919050565b6060600080546104b79061284e565b80601f01602080910402602001604051908101604052809291908181526020018280546104e39061284e565b80156105305780601f1061050557610100808354040283529160200191610530565b820191906000526020600020905b81548152906001019060200180831161051357829003601f168201915b5050505050905090565b600061054582610f11565b5061054f82610f99565b9050919050565b6105688282610563610fd6565b610fde565b5050565b606060085482106105b2576040517f08c379a00000000000000000000000000000000000000000000000000000000081526004016105a9906128cb565b60405180910390fd5b600a600083815260200190815260200160002080546105d09061284e565b80601f01602080910402602001604051908101604052809291908181526020018280546105fc9061284e565b80156106495780601f1061061e57610100808354040283529160200191610649565b820191906000526020600020905b81548152906001019060200180831161062c57829003601f168201915b50505050509050919050565b600073ffffffffffffffffffffffffffffffffffffffff168273ffffffffffffffffffffffffffffffffffffffff16036106c75760006040517f64a0ae920000000000000000000000000000000000000000000000000000000081526004016106be9190612302565b60405180910390fd5b60006106db83836106d6610fd6565b610ff0565b90508373ffffffffffffffffffffffffffffffffffffffff168173ffffffffffffffffffffffffffffffffffffffff1614610751578382826040517f64283d7b000000000000000000000000000000000000000000000000000000008152600401610748939291906128eb565b60405180910390fd5b50505050565b61075f61120a565b81600a6000858152602001908152602001600020908161077f9190612ace565b50806040516020016107919190612bdc565b60405160208183030381529060405280519060200120600b600085815260200190815260200160002081905550600860008154809291906107d190612c22565b9190505550505050565b6107f683838360405180602001604052806000815250610bbf565b505050565b600061080682610f11565b9050919050565b60008073ffffffffffffffffffffffffffffffffffffffff168273ffffffffffffffffffffffffffffffffffffffff16036108805760006040517f89c62b640000000000000000000000000000000000000000000000000000000081526004016108779190612302565b60405180910390fd5b600360008373ffffffffffffffffffffffffffffffffffffffff1673ffffffffffffffffffffffffffffffffffffffff168152602001908152602001600020549050919050565b6108cf61120a565b6108d96000611291565b565b60085481565b6000600760009054906101000a900473ffffffffffffffffffffffffffffffffffffffff16905090565b60606001805461091a9061284e565b80601f01602080910402602001604051908101604052809291908181526020018280546109469061284e565b80156109935780601f1061096857610100808354040283529160200191610993565b820191906000526020600020905b81548152906001019060200180831161097657829003601f168201915b5050505050905090565b6109af6109a8610fd6565b8383611357565b5050565b600c60003373ffffffffffffffffffffffffffffffffffffffff1673ffffffffffffffffffffffffffffffffffffffff16815260200190815260200160002060009054906101000a900460ff1615610a40576040517f08c379a0000000000000000000000000000000000000000000000000000000008152600401610a3790612cb6565b60405180910390fd5b6008548210610a84576040517f08c379a0000000000000000000000000000000000000000000000000000000008152600401610a7b906128cb565b60405180910390fd5b6000600b6000848152602001908152602001600020549050600082604051602001610aaf9190612bdc565b604051602081830303815290604052805190602001209050818114610b09576040517f08c379a0000000000000000000000000000000000000000000000000000000008152600401610b0090612d22565b60405180910390fd5b6001600c60003373ffffffffffffffffffffffffffffffffffffffff1673ffffffffffffffffffffffffffffffffffffffff16815260200190815260200160002060006101000a81548160ff021916908315150217905550610b6b33856114c6565b3373ffffffffffffffffffffffffffffffffffffffff167f22b085018587880beba787d68171f97ee067c34bc68ba6389c2cfce32c29aa6a85604051610bb191906125d8565b60405180910390a250505050565b610bca848484610655565b610bd68484848461157d565b50505050565b6060610be782610f11565b506000600660008481526020019081526020016000208054610c089061284e565b80601f0160208091040260200160405190810160405280929190818152602001828054610c349061284e565b8015610c815780601f10610c5657610100808354040283529160200191610c81565b820191906000526020600020905b815481529060010190602001808311610c6457829003601f168201915b505050505090506000610c92611734565b90506000815103610ca7578192505050610cea565b600082511115610cdc578082604051602001610cc4929190612d42565b60405160208183030381529060405292505050610cea565b610ce58461174b565b925050505b919050565b60095481565b600c6020528060005260406000206000915054906101000a900460ff1681565b6000600560008473ffffffffffffffffffffffffffffffffffffffff1673ffffffffffffffffffffffffffffffffffffffff16815260200190815260200160002060008373ffffffffffffffffffffffffffffffffffffffff1673ffffffffffffffffffffffffffffffffffffffff16815260200190815260200160002060009054906101000a900460ff16905092915050565b610db161120a565b600073ffffffffffffffffffffffffffffffffffffffff168173ffffffffffffffffffffffffffffffffffffffff1603610e235760006040517f1e4fbdf7000000000000000000000000000000000000000000000000000000008152600401610e1a9190612302565b60405180910390fd5b610e2c81611291565b50565b60007f80ac58cd000000000000000000000000000000000000000000000000000000007bffffffffffffffffffffffffffffffffffffffffffffffffffffffff1916827bffffffffffffffffffffffffffffffffffffffffffffffffffffffff19161480610efa57507f5b5e139f000000000000000000000000000000000000000000000000000000007bffffffffffffffffffffffffffffffffffffffffffffffffffffffff1916827bffffffffffffffffffffffffffffffffffffffffffffffffffffffff1916145b80610f0a5750610f09826117b4565b5b9050919050565b600080610f1d8361181e565b9050600073ffffffffffffffffffffffffffffffffffffffff168173ffffffffffffffffffffffffffffffffffffffff1603610f9057826040517f7e273289000000000000000000000000000000000000000000000000000000008152600401610f8791906125d8565b60405180910390fd5b80915050919050565b60006004600083815260200190815260200160002060009054906101000a900473ffffffffffffffffffffffffffffffffffffffff169050919050565b600033905090565b610feb838383600161185b565b505050565b600080610ffc8461181e565b9050600073ffffffffffffffffffffffffffffffffffffffff168373ffffffffffffffffffffffffffffffffffffffff161461103e5761103d818486611a20565b5b600073ffffffffffffffffffffffffffffffffffffffff168173ffffffffffffffffffffffffffffffffffffffff16146110cf5761108060008560008061185b565b6001600360008373ffffffffffffffffffffffffffffffffffffffff1673ffffffffffffffffffffffffffffffffffffffff168152602001908152602001600020600082825403925050819055505b600073ffffffffffffffffffffffffffffffffffffffff168573ffffffffffffffffffffffffffffffffffffffff1614611152576001600360008773ffffffffffffffffffffffffffffffffffffffff1673ffffffffffffffffffffffffffffffffffffffff168152602001908152602001600020600082825401925050819055505b846002600086815260200190815260200160002060006101000a81548173ffffffffffffffffffffffffffffffffffffffff021916908373ffffffffffffffffffffffffffffffffffffffff160217905550838573ffffffffffffffffffffffffffffffffffffffff168273ffffffffffffffffffffffffffffffffffffffff167fddf252ad1be2c89b69c2b068fc378daa952ba7f163c4a11628f55a4df523b3ef60405160405180910390a4809150509392505050565b611212610fd6565b73ffffffffffffffffffffffffffffffffffffffff166112306108e1565b73ffffffffffffffffffffffffffffffffffffffff161461128f57611253610fd6565b6040517f118cdaa70000000000000000000000000000000000000000000000000000000081526004016112869190612302565b60405180910390fd5b565b6000600760009054906101000a900473ffffffffffffffffffffffffffffffffffffffff16905081600760006101000a81548173ffffffffffffffffffffffffffffffffffffffff021916908373ffffffffffffffffffffffffffffffffffffffff1602179055508173ffffffffffffffffffffffffffffffffffffffff168173ffffffffffffffffffffffffffffffffffffffff167f8be0079c531659141344cd1fd0a4f28419497f9722a3daafe3b4186f6b6457e060405160405180910390a35050565b600073ffffffffffffffffffffffffffffffffffffffff168273ffffffffffffffffffffffffffffffffffffffff16036113c857816040517f5b08ba180000000000000000000000000000000000000000000000000000000081526004016113bf9190612302565b60405180910390fd5b80600560008573ffffffffffffffffffffffffffffffffffffffff1673ffffffffffffffffffffffffffffffffffffffff16815260200190815260200160002060008473ffffffffffffffffffffffffffffffffffffffff1673ffffffffffffffffffffffffffffffffffffffff16815260200190815260200160002060006101000a81548160ff0219169083151502179055508173ffffffffffffffffffffffffffffffffffffffff168373ffffffffffffffffffffffffffffffffffffffff167f17307eab39ab6107e8899845ad3d59bd9653f200f220920489ca2b5937696c31836040516114b99190612191565b60405180910390a3505050565b600960008154809291906114d990612c22565b91905055506000600954905060006114f083611ae4565b6040516020016115009190612dfe565b604051602081830303815290604052905061151b8483611c6c565b6115258282611c8a565b8373ffffffffffffffffffffffffffffffffffffffff167f01f8bd07e6c27ff813d5c6d3c4bf0313a1d75043cf978214b504b794075e526683858460405161156f93929190612e2b565b60405180910390a250505050565b60008373ffffffffffffffffffffffffffffffffffffffff163b111561172e578273ffffffffffffffffffffffffffffffffffffffff1663150b7a026115c1610fd6565b8685856040518563ffffffff1660e01b81526004016115e39493929190612ebe565b6020604051808303816000875af192505050801561161f57506040513d601f19601f8201168201806040525081019061161c9190612f1f565b60015b6116a3573d806000811461164f576040519150601f19603f3d011682016040523d82523d6000602084013e611654565b606091505b50600081510361169b57836040517f64a0ae920000000000000000000000000000000000000000000000000000000081526004016116929190612302565b60405180910390fd5b805181602001fd5b63150b7a0260e01b7bffffffffffffffffffffffffffffffffffffffffffffffffffffffff1916817bffffffffffffffffffffffffffffffffffffffffffffffffffffffff19161461172c57836040517f64a0ae920000000000000000000000000000000000000000000000000000000081526004016117239190612302565b60405180910390fd5b505b50505050565b606060405180602001604052806000815250905090565b606061175682610f11565b506000611761611734565b9050600081511161178157604051806020016040528060008152506117ac565b8061178b84611ce6565b60405160200161179c929190612d42565b6040516020818303038152906040525b915050919050565b60007f01ffc9a7000000000000000000000000000000000000000000000000000000007bffffffffffffffffffffffffffffffffffffffffffffffffffffffff1916827bffffffffffffffffffffffffffffffffffffffffffffffffffffffff1916149050919050565b60006002600083815260200190815260200160002060009054906101000a900473ffffffffffffffffffffffffffffffffffffffff169050919050565b80806118945750600073ffffffffffffffffffffffffffffffffffffffff168273ffffffffffffffffffffffffffffffffffffffff1614155b156119c85760006118a484610f11565b9050600073ffffffffffffffffffffffffffffffffffffffff168373ffffffffffffffffffffffffffffffffffffffff161415801561190f57508273ffffffffffffffffffffffffffffffffffffffff168173ffffffffffffffffffffffffffffffffffffffff1614155b801561192257506119208184610d15565b155b1561196457826040517fa9fbf51f00000000000000000000000000000000000000000000000000000000815260040161195b9190612302565b60405180910390fd5b81156119c657838573ffffffffffffffffffffffffffffffffffffffff168273ffffffffffffffffffffffffffffffffffffffff167f8c5be1e5ebec7d5bd14f71427d1e84f3dd0314c0f7b2291e5b200ac8c7c3b92560405160405180910390a45b505b836004600085815260200190815260200160002060006101000a81548173ffffffffffffffffffffffffffffffffffffffff021916908373ffffffffffffffffffffffffffffffffffffffff16021790555050505050565b611a2b838383611db4565b611adf57600073ffffffffffffffffffffffffffffffffffffffff168373ffffffffffffffffffffffffffffffffffffffff1603611aa057806040517f7e273289000000000000000000000000000000000000000000000000000000008152600401611a9791906125d8565b60405180910390fd5b81816040517f177e802f000000000000000000000000000000000000000000000000000000008152600401611ad6929190612f4c565b60405180910390fd5b505050565b606060008203611b2b576040518060400160405280600181526020017f30000000000000000000000000000000000000000000000000000000000000008152509050611c67565b600082905060005b60008214611b5d578080611b4690612c22565b915050600a82611b569190612fa4565b9150611b33565b60008167ffffffffffffffff811115611b7957611b786123e6565b5b6040519080825280601f01601f191660200182016040528015611bab5781602001600182028036833780820191505090505b50905060008290505b60008614611c5f57600181611bc99190612fd5565b90506000600a8088611bdb9190612fa4565b611be59190613009565b87611bf09190612fd5565b6030611bfc9190613058565b905060008160f81b905080848481518110611c1a57611c1961308d565b5b60200101907effffffffffffffffffffffffffffffffffffffffffffffffffffffffffffff1916908160001a905350600a88611c569190612fa4565b97505050611bb4565b819450505050505b919050565b611c86828260405180602001604052806000815250611e75565b5050565b80600660008481526020019081526020016000209081611caa9190612ace565b507ff8e1a15aba9398e019f0b49df1a4fde98ee17ae345cb5f6b5e2c27f5033e8ce782604051611cda91906125d8565b60405180910390a15050565b606060006001611cf584611e91565b01905060008167ffffffffffffffff811115611d1457611d136123e6565b5b6040519080825280601f01601f191660200182016040528015611d465781602001600182028036833780820191505090505b509050600082602001820190505b600115611da9578080600190039150507f3031323334353637383961626364656600000000000000000000000000000000600a86061a8153600a8581611d9d57611d9c612f75565b5b04945060008503611d54575b819350505050919050565b60008073ffffffffffffffffffffffffffffffffffffffff168373ffffffffffffffffffffffffffffffffffffffff1614158015611e6c57508273ffffffffffffffffffffffffffffffffffffffff168473ffffffffffffffffffffffffffffffffffffffff161480611e2d5750611e2c8484610d15565b5b80611e6b57508273ffffffffffffffffffffffffffffffffffffffff16611e5383610f99565b73ffffffffffffffffffffffffffffffffffffffff16145b5b90509392505050565b611e7f8383611fe4565b611e8c600084848461157d565b505050565b600080600090507a184f03e93ff9f4daa797ed6e38ed64bf6a1f0100000000000000008310611eef577a184f03e93ff9f4daa797ed6e38ed64bf6a1f0100000000000000008381611ee557611ee4612f75565b5b0492506040810190505b6d04ee2d6d415b85acef81000000008310611f2c576d04ee2d6d415b85acef81000000008381611f2257611f21612f75565b5b0492506020810190505b662386f26fc100008310611f5b57662386f26fc100008381611f5157611f50612f75565b5b0492506010810190505b6305f5e1008310611f84576305f5e1008381611f7a57611f79612f75565b5b0492506008810190505b6127108310611fa9576127108381611f9f57611f9e612f75565b5b0492506004810190505b60648310611fcc5760648381611fc257611fc1612f75565b5b0492506002810190505b600a8310611fdb576001810190505b80915050919050565b600073ffffffffffffffffffffffffffffffffffffffff168273ffffffffffffffffffffffffffffffffffffffff16036120565760006040517f64a0ae9200000000000000000000000000000000000000000000000000000000815260040161204d9190612302565b60405180910390fd5b600061206483836000610ff0565b9050600073ffffffffffffffffffffffffffffffffffffffff168173ffffffffffffffffffffffffffffffffffffffff16146120d85760006040517f73c6ac6e0000000000000000000000000000000000000000000000000000000081526004016120cf9190612302565b60405180910390fd5b505050565b6000604051905090565b600080fd5b600080fd5b60007fffffffff0000000000000000000000000000000000000000000000000000000082169050919050565b612126816120f1565b811461213157600080fd5b50565b6000813590506121438161211d565b92915050565b60006020828403121561215f5761215e6120e7565b5b600061216d84828501612134565b91505092915050565b60008115159050919050565b61218b81612176565b82525050565b60006020820190506121a66000830184612182565b92915050565b600081519050919050565b600082825260208201905092915050565b60005b838110156121e65780820151818401526020810190506121cb565b60008484015250505050565b6000601f19601f8301169050919050565b600061220e826121ac565b61221881856121b7565b93506122288185602086016121c8565b612231816121f2565b840191505092915050565b600060208201905081810360008301526122568184612203565b905092915050565b6000819050919050565b6122718161225e565b811461227c57600080fd5b50565b60008135905061228e81612268565b92915050565b6000602082840312156122aa576122a96120e7565b5b60006122b88482850161227f565b91505092915050565b600073ffffffffffffffffffffffffffffffffffffffff82169050919050565b60006122ec826122c1565b9050919050565b6122fc816122e1565b82525050565b600060208201905061231760008301846122f3565b92915050565b612326816122e1565b811461233157600080fd5b50565b6000813590506123438161231d565b92915050565b600080604083850312156123605761235f6120e7565b5b600061236e85828601612334565b925050602061237f8582860161227f565b9150509250929050565b6000806000606084860312156123a2576123a16120e7565b5b60006123b086828701612334565b93505060206123c186828701612334565b92505060406123d28682870161227f565b9150509250925092565b600080fd5b600080fd5b7f4e487b7100000000000000000000000000000000000000000000000000000000600052604160045260246000fd5b61241e826121f2565b810181811067ffffffffffffffff8211171561243d5761243c6123e6565b5b80604052505050565b60006124506120dd565b905061245c8282612415565b919050565b600067ffffffffffffffff82111561247c5761247b6123e6565b5b612485826121f2565b9050602081019050919050565b82818337600083830152505050565b60006124b46124af84612461565b612446565b9050828152602081018484840111156124d0576124cf6123e1565b5b6124db848285612492565b509392505050565b600082601f8301126124f8576124f76123dc565b5b81356125088482602086016124a1565b91505092915050565b60008060006060848603121561252a576125296120e7565b5b60006125388682870161227f565b935050602084013567ffffffffffffffff811115612559576125586120ec565b5b612565868287016124e3565b925050604084013567ffffffffffffffff811115612586576125856120ec565b5b612592868287016124e3565b9150509250925092565b6000602082840312156125b2576125b16120e7565b5b60006125c084828501612334565b91505092915050565b6125d28161225e565b82525050565b60006020820190506125ed60008301846125c9565b92915050565b6125fc81612176565b811461260757600080fd5b50565b600081359050612619816125f3565b92915050565b60008060408385031215612636576126356120e7565b5b600061264485828601612334565b92505060206126558582860161260a565b9150509250929050565b60008060408385031215612676576126756120e7565b5b60006126848582860161227f565b925050602083013567ffffffffffffffff8111156126a5576126a46120ec565b5b6126b1858286016124e3565b9150509250929050565b600067ffffffffffffffff8211156126d6576126d56123e6565b5b6126df826121f2565b9050602081019050919050565b60006126ff6126fa846126bb565b612446565b90508281526020810184848401111561271b5761271a6123e1565b5b612726848285612492565b509392505050565b600082601f830112612743576127426123dc565b5b81356127538482602086016126ec565b91505092915050565b60008060008060808587031215612776576127756120e7565b5b600061278487828801612334565b945050602061279587828801612334565b93505060406127a68782880161227f565b925050606085013567ffffffffffffffff8111156127c7576127c66120ec565b5b6127d38782880161272e565b91505092959194509250565b600080604083850312156127f6576127f56120e7565b5b600061280485828601612334565b925050602061281585828601612334565b9150509250929050565b7f4e487b7100000000000000000000000000000000000000000000000000000000600052602260045260246000fd5b6000600282049050600182168061286657607f821691505b6020821081036128795761287861281f565b5b50919050565b7f50757a7a6c6520646f6573206e6f742065786973740000000000000000000000600082015250565b60006128b56015836121b7565b91506128c08261287f565b602082019050919050565b600060208201905081810360008301526128e4816128a8565b9050919050565b600060608201905061290060008301866122f3565b61290d60208301856125c9565b61291a60408301846122f3565b949350505050565b60008190508160005260206000209050919050565b60006020601f8301049050919050565b600082821b905092915050565b6000600883026129847fffffffffffffffffffffffffffffffffffffffffffffffffffffffffffffffff82612947565b61298e8683612947565b95508019841693508086168417925050509392505050565b6000819050919050565b60006129cb6129c66129c18461225e565b6129a6565b61225e565b9050919050565b6000819050919050565b6129e5836129b0565b6129f96129f1826129d2565b848454612954565b825550505050565b600090565b612a0e612a01565b612a198184846129dc565b505050565b5b81811015612a3d57612a32600082612a06565b600181019050612a1f565b5050565b601f821115612a8257612a5381612922565b612a5c84612937565b81016020851015612a6b578190505b612a7f612a7785612937565b830182612a1e565b50505b505050565b600082821c905092915050565b6000612aa560001984600802612a87565b1980831691505092915050565b6000612abe8383612a94565b9150826002028217905092915050565b612ad7826121ac565b67ffffffffffffffff811115612af057612aef6123e6565b5b612afa825461284e565b612b05828285612a41565b600060209050601f831160018114612b385760008415612b26578287015190505b612b308582612ab2565b865550612b98565b601f198416612b4686612922565b60005b82811015612b6e57848901518255600182019150602085019450602081019050612b49565b86831015612b8b5784890151612b87601f891682612a94565b8355505b6001600288020188555050505b505050505050565b600081905092915050565b6000612bb6826121ac565b612bc08185612ba0565b9350612bd08185602086016121c8565b80840191505092915050565b6000612be88284612bab565b915081905092915050565b7f4e487b7100000000000000000000000000000000000000000000000000000000600052601160045260246000fd5b6000612c2d8261225e565b91507fffffffffffffffffffffffffffffffffffffffffffffffffffffffffffffffff8203612c5f57612c5e612bf3565b5b600182019050919050565b7f416c726561647920636f6d706c65746564000000000000000000000000000000600082015250565b6000612ca06011836121b7565b9150612cab82612c6a565b602082019050919050565b60006020820190508181036000830152612ccf81612c93565b9050919050565b7f496e636f727265637420736f6c7574696f6e0000000000000000000000000000600082015250565b6000612d0c6012836121b7565b9150612d1782612cd6565b602082019050919050565b60006020820190508181036000830152612d3b81612cff565b9050919050565b6000612d4e8285612bab565b9150612d5a8284612bab565b91508190509392505050565b7f68747470733a2f2f6d657461646174612d6170692e636f6d2f746f6b656e2f00600082015250565b6000612d9c601f83612ba0565b9150612da782612d66565b601f82019050919050565b7f2e6a736f6e000000000000000000000000000000000000000000000000000000600082015250565b6000612de8600583612ba0565b9150612df382612db2565b600582019050919050565b6000612e0982612d8f565b9150612e158284612bab565b9150612e2082612ddb565b915081905092915050565b6000606082019050612e4060008301866125c9565b612e4d60208301856125c9565b8181036040830152612e5f8184612203565b9050949350505050565b600081519050919050565b600082825260208201905092915050565b6000612e9082612e69565b612e9a8185612e74565b9350612eaa8185602086016121c8565b612eb3816121f2565b840191505092915050565b6000608082019050612ed360008301876122f3565b612ee060208301866122f3565b612eed60408301856125c9565b8181036060830152612eff8184612e85565b905095945050505050565b600081519050612f198161211d565b92915050565b600060208284031215612f3557612f346120e7565b5b6000612f4384828501612f0a565b91505092915050565b6000604082019050612f6160008301856122f3565b612f6e60208301846125c9565b9392505050565b7f4e487b7100000000000000000000000000000000000000000000000000000000600052601260045260246000fd5b6000612faf8261225e565b9150612fba8361225e565b925082612fca57612fc9612f75565b5b828204905092915050565b6000612fe08261225e565b9150612feb8361225e565b925082820390508181111561300357613002612bf3565b5b92915050565b60006130148261225e565b915061301f8361225e565b925082820261302d8161225e565b9150828204841483151761304457613043612bf3565b5b5092915050565b600060ff82169050919050565b60006130638261304b565b915061306e8361304b565b9250828201905060ff81111561308757613086612bf3565b5b92915050565b7f4e487b7100000000000000000000000000000000000000000000000000000000600052603260045260246000fdfea26469706673582212203c3df422ff84ae4d314b2da0f91293b1880d40c212b616b245fb5c2e9175106364736f6c63430008180033",
  "linkReferences": {},
  "deployedLinkReferences": {}
}